:020000040800F2
:100000002807002035020008C53000085F250008D9
:10001000BD2D0008912200089B460008000000004A
:100020000000000000000000000000001D38000873
:100030003524000800000000B93400087F420008A1
:100040004F0200084F0200084F0200084F0200084C
:100050004F0200084F0200084F0200084F0200083C
:100060004F0200084F0200084F0200084F0200082C
:100070004F0200084F0200084F0200084F0200081C
:100080004F0200084F0200084F0200084F0200080C
:100090004F0200084F0200084F0200084F020008FC
:1000A0004F0200084F0200084F0200084F020008EC
:1000B0004F0200084F0200084F0200084F020008DC
:1000C0004F0200084F0200084F0200084F020008CC
:1000D0004F0200082D4400084F0200084F0200089C
:1000E0004F0200084F0200084F02000800F002F81B
:1000F00000F090F80AA090E8000C82448344AAF132
:100100000107DA4501D100F085F8AFF2090EBAE82F
:100110000F0013F0010F18BFFB1A43F0010318473B
:100120000051000020510000103A24BF78C878C167
:10013000FAD8520724BF30C830C144BF04680C60ED
:10014000704700000023002400250026103A28BF35
:1001500078C1FBD8520728BF30C148BF0B60704739
:100160006E2900F0CF81702900F01983662904F010
:10017000CD84652904F0CA84672904F0C784612905
:1001800004F0C68403681B0A28BF41F08001692976
:1001900000F07C81642900F07981752900F0768176
:1001A0006F2900F0A682782900F0E582E92900F0A5
:1001B0004182E42900F03E82F52900F03B82EF29DC
:1001C00000F0A382F82900F0E4820368DB0928BF6D
:1001D00041F08001632900F0E787732900F0EC8784
:1001E000E32900F0F787F32900F0FC87002070472F
:1001F0001FB501F049F804000020002104F070FC54
:10020000401C60600020002104F054FCE0601FBD31
:1002100010B510BD01F00AF81146FFF7E9FF04F030
:1002200043FB01F0E7F803B4FFF7F2FF03BC01F072
:10023000EFF800000948804709480047FEE7FEE75D
:10024000FEE7FEE7FEE7FEE7FEE7FEE7FEE7FEE786
:1002500004480549054A064B704700002D43000835
:10026000ED000008280100202807002028030020B6
:10027000280300207CB51D4616460C00009001D0D6
:100280002044401E074B7B442A4669460190304675
:1002900000F051F905461CB10020694600F05EF9F6
:1002A00028467CBDDD02000040EA010370B59B07D3
:1002B0002ED14FF00136042A2AD308C810C99D1B3D
:1002C0009D43121F15EAC61517D0D8B2E1B2401AE5
:1002D00050EA056110D198B2A1B2401A50EA054126
:1002E0000AD123F07F4024F07F41401A50EA0521D3
:1002F00002D1180EA0EB146070BDA342DBD018BA77
:1003000021BA884201D9012070BD4FF0FF3070BD85
:100310000AB9002070BD10F8013B11F8014B63B120
:10032000A3420AD1521E08D010F8013B11F8014B2C
:100330001BB1A34201D1521EEDD1181B70BD0000AC
:100340004FF0013C50F8042B51F8043B9A4221D164
:10035000A2EB0C03934313EACC1317D150F8042BF0
:1003600051F8043B9A4215D1A2EB0C03934313EAD4
:10037000CC130BD150F8042B51F8043B9A4209D10D
:10038000A2EB0C03934313EACC13DBD04FF0000035
:10039000704700BFD01A01BAB1FA81F101F018011B
:1003A00022FA01F0CB40C1F12001DBB2C0B2C01A89
:1003B0002CFA01F3D11A914311EAC311E6D1704727
:1003C00070477047704770B5044685690068C1067C
:1003D00001D5302600E02026C00707D070BDD4E943
:1003E000012130469047206A401C20626D1EF6D5E0
:1003F00070BD70B5044685690078C00707D170BD2F
:10040000D4E9012120209047206A401C20626D1E03
:10041000F6D570BD09684A0501D540B27047C905D7
:10042000FCD500B2704709684A0501D5C0B27047D3
:10043000C905FCD580B2704770B50C460546012A47
:1004400005D02878800600D5EA69002302E0012360
:1004500005E05B1C934202D2E05C0028F9D1A86958
:10046000E618C01AA861286A184428622846FFF7CF
:10047000AAFF04E0D5E9012114F8010B9047B4422A
:10048000F8D32846FFF7B5FF70BD00002DE9F04115
:100490000646002410687529314616A510D0FFF7CE
:1004A000B9FF002802DA404213A507E031688A0745
:1004B00001D512A502E0490704D511A5012401E0E8
:1004C000FFF7B1FF00210A2206F1240709E0B0FB83
:1004D000F2FCB0FBF2F302FB1C00303078541846FB
:1004E000491C0028F3D123462A463046BDE8F04196
:1004F00000F069BA000000002D0000002B00000091
:100500002000000011680268006A530501D50870D8
:100510000AE0D30501D5088006E0130603D5C2170B
:10052000C1E9000200E008600120704701694A1C2F
:1005300002610878704700B58FB0CDE90131002124
:10054000059105497944CDE903101146684600F04C
:1005500031F90FB000BD0000E5FFFFFF0A6802F8A7
:10056000010B0A607047D1E900239A4202D2531C62
:100570000B601070704700002DE9FF5F15468A463A
:100580000446DFF8AC80F8440027D8E900103E4666
:10059000CDE9001010E03AF816106A4602A800F003
:1005A00025FE411C07D02178890603D5E269391858
:1005B00091420DD80744761C2078800602D5E06968
:1005C000B84205DDAE42E6DB3AF816000028E2D17B
:1005D000A069C01BA0612046FFF7F5FED8E9001016
:1005E000CDE90010002017E03AF818106A4602A87A
:1005F00000F0FCFDB0F1FF3F81460BD000250DF16E
:10060000080B05E0D4E901211BF8050090476D1C9B
:100610004D45F7D308F10100B0428046E4DB206A83
:10062000384420622046FFF7E4FEBDE8FF9F00004B
:100630009A4B00002DE9F0418046D21D22F00702BE
:100640000025D2E90002F52915A614D0011E72F189
:10065000000106DA0023D0EB030063EB020211A6CF
:1006600008E0D8F800108B0701D50FA602E0490773
:1006700001D50EA601251146002408F1240704E047
:1006800000F05CF930323A55641C50EA0102F7D1AF
:100690002B46324621464046BDE8F04100F093B972
:1006A000000000002D0000002B00000020000000D2
:1006B00030B4002100F1240408E002F00705D2085C
:1006C000303542EA4372DB086554491C52EA03059F
:1006D000F3D10468002310A2250707D5A40600D48F
:1006E00021B1C46901230DA2641EC46130BC00F0B5
:1006F0006AB910B5044621461068FFF794FE024619
:100700002046BDE810400023D2E7D21D22F00701A9
:10071000D1E90023CCE70000000000003000000019
:10072000F0B40D460188090502D5214C7C4402E055
:100730001F4C7C440E34002100F1240608E002F036
:100740000F071209E75D42EA03721B097754491C3F
:1007500052EA0307F3D102780023120704D5702D63
:1007600006D009B1022311342246F0BC00F02BB9A7
:1007700001231034F8E770B504460D462146106891
:10078000FFF751FE024629462046BDE8704000238F
:10079000C6E7D21D22F00703D3E90023C0E70368B0
:1007A000126843F0200303600823C3610023B7E706
:1007B000FC4900002DE9F05F894604464FF0000A2D
:1007C000DFF874B1FB44C0F820A02046E1688847F8
:1007D000002874D0252806D0D4E901219047206A4A
:1007E000401C2062F1E700265F462046E16888470A
:1007F0002028054607DB312D05D2781910F8200C8A
:1008000008B10643F1E7B00701D526F00406C4F8A5
:100810001CA00027C4F818A02A2D09D0284604F0EF
:100820003BF838B304EB8708303DC8F8185019E09E
:1008300059F8041B204604EB87029161E168884760
:10084000012F054618D1E069002820DA26F020069D
:100850001DE0D8F8180000EB800005EB40003038B0
:10086000C8F818002046E1688847054604F014F8E7
:100870000028EED1012F0AD02E2D08D12046E168A4
:1008800088477F1C0546022F46F02006C4DBA0697E
:10089000002803DA404246F00106A061F00701D0CB
:1008A00026F010066C2D0BD0682D09D04C2D39D0B8
:1008B0006A2D35D0742D35D07A2D33D016E038E03E
:1008C000E1682F4620468847B842054609D16C2F7B
:1008D00026D04FF48060E1680643204688470546ED
:1008E00004E06C2F1AD04FF4807006430DB3A5F1CD
:1008F0004100192802D8203546F400664A462946A8
:10090000204626604E46FFF72BFC80B101280BD015
:10091000F61D26F0070000F1080956E74020E4E73D
:100920008020D8E70020D6E706F104094DE72846E5
:1009300052E7206ABDE8F09F8C49000030B5B0F165
:100940000A024FEA900E71F100034EEA817EB0EB8D
:100950000E0061EB91014FEA101E4EEA017E10EB92
:100960000E0041EB11114FEA102E4EEA016E10EB12
:100970000E0041EB11214FEA104E4EEA014E10EBF2
:100980000E0041EB1141401841F100014FEAD00047
:1009900040EA41704FEAD10110EB80054FEA810433
:1009A00044EA907444EB01046D1944EB0404521BB7
:1009B000A3414FF0000348BF0A3200D530BD401CB0
:1009C00041F1000130BD2DE9F0470D4699469246B0
:1009D000044600F124080168880604D5E06921F086
:1009E0001001216000E00120A84201DD471B00E06A
:1009F0000027A1697A1902EB0900081AA061207882
:100A0000C00602D42046FFF7DEFC002608E0D4E949
:100A100001211AF806009047206A401C761C2062CB
:100A20004E45F4DB2078C0060AD52046FFF7CBFC04
:100A300006E0D4E9012130209047206A401C206262
:100A4000381EA7F10107F4DC07E0D4E9012118F80A
:100A500005009047206A401C2062281EA5F1010570
:100A6000F3DC2046FFF7C5FC2078000602D5022003
:100A7000BDE8F0870120FBE770472DE9FF4F0C46EA
:100A80001E464FF0FF378BB0D2E90001DDF86080E1
:100A90000A908A46C1F30A5505B93D460021084629
:100AA0004FF00000BAF1000F00F4400005DA00EB4F
:100AB00080004FF4400101EA50004FEA9059B9F12B
:100AC000010F00DDB9460A9850EA4A000ED044F6FC
:100AD0001050A5F2FF3545432F14B8F1000F1ED07A
:100AE0007542291E1EDDC9F100021CE0B8F1010F9C
:100AF0004FF0000001D0302103E0F24305E0215423
:100B0000401CB042FBDB30460022002121540B99EF
:100B1000C1F80880C1E900200FB0BDE8F08FBD1B0F
:100B20006D1CDEE74A4600DA694206A800F0F0FBD9
:100B300006AB93E8070003AB83E8070050460A9929
:100B400000F06DFC8DE80700A0F500501F38009004
:100B50000398002D0ADD42F21F014A460844002393
:100B600003A90390684600F0D6FE09E0A0F5005006
:100B70004A461F38002303A90390684600F0E0FEB0
:100B80008DE807000004000C03D04FF0FF3041084F
:100B900000E01046B8F1000F03D000220092154685
:100BA0001EE0751E05D4FFF7C9FE303262556D1E7A
:100BB000F9D5B3460122084302D000227F1C04E08D
:100BC0002078302801D100227F1E002A099784D086
:100BD0001DE0112D07DAFFF7B1FE303262556D1CB2
:100BE00050EA0102F5D1084302D00098C8B10EE0E6
:100BF0000021681E05E0235C625C63542254401EA1
:100C0000491C8142F7DBAB46A81B401E099000201F
:100C100004F80B000B98099AC0F80880C0E9002B73
:100C20007AE711264FF0000857E72DE9F04F884684
:100C30000446D21D22F0070191B0D1E90001CDE9AF
:100C40000A0103F015FE02460B98C00F01D02D20BB
:100C500007E02068810701D52B2002E0202101EA6E
:100C6000C000032A099001D0072A05DB034641464C
:100C7000204600F00DFB0BE12078800601D5E069ED
:100C800000E00620B8F1650F814606D0B8F1660F86
:100C900018D0B8F1670F70D131E00020B9F1110F11
:100CA000009001DB112301E009F101030AAA01A967
:100CB0000CA8FFF7E2FEDDE90C70002609F1010542
:100CC000834647E001204B4600904FF000470AAAB8
:100CD00001A90CA8FFF7D1FEDDE90DB00C995D4626
:100CE000002610B909F101000D18B9EB050003D475
:100CF000C0F1FF3609F10105A5EB09002BE0B9F1C0
:100D0000010F01DA4FF001090020B9F1110F009035
:100D1000484601DD112300E003460AAA01A90CA8F8
:100D2000FFF7ABFEDDE90C704D46002683462078C8
:100D300000070AD4AB4500DA5D4601A8012D04DDA9
:100D4000411911F8011C302907D04F4502DA17F17B
:100D5000040F04DA012082460FE06D1EEEE7002F3B
:100D600002DCED1B3E4403E0781CA84200DD7D1C44
:100D7000B81B00F1010A4FF000472078000703D4A8
:100D8000AA4501DB4FF0FF3A0021B7F1004F0DF10A
:100D900043088DF8431024D002202B23002F01DAC2
:100DA0007F422D230A21021EA0F1010000DC5FB169
:100DB00097FBF1FC97FBF1F201FB1C7C17460CF151
:100DC000300C08F801CDEEE7A8F10100037021888E
:100DD000090501D5452100E06521A0F1010800F8D1
:100DE000011C09980FA9A1EB0807FF1D00B1012004
:100DF000411901EBEA70A1693844081A401EA0614C
:100E00002078C00602D42046FFF7DDFA099828B101
:100E1000D4E901219047206A401C20622078C00656
:100E200022D52046FFF7CFFA1EE0002E04DBB345A3
:100E300002DD01A8805D00E03020D4E90121904767
:100E4000206A401C2062761CAAF101005FEA000AB9
:100E50000AD100F019FAC0680168405CD4E90121A8
:100E60009047206A401C2062281EA5F10105DCDCA9
:100E700007E0D4E9012118F8010B9047206A401CD3
:100E80002062381EA7F10107F3DC2046FFF7B1FA14
:100E9000032011B041E600002DE9F04F04460D4655
:100EA000D21D22F0070089B0D0E9009748463946A4
:100EB00003F0DEFC0246F80F01D02D2307E0206886
:100EC000810701D52B2302E0202101EAC0038DF820
:100ED00020300BB1012000E00020032A824601D01F
:100EE000072A04DB2946204600F0D2F93FE12078AA
:100EF000800601D40D2500E0E569C7F30A560D2DE3
:100F000049DA00214FEA175B08464FF00000002F36
:100F100000F4400007DA00EB80004FF4400100EBE2
:100F2000D07001EA60008115012901DD4FF0FF3129
:100F300000224FEA850CBCF1180F06D31346ACF122
:100F400018004FF08052C24003E04FF4801323FAA0
:100F50000CF30CF10C0CBCF1200F04D3ACF1200C01
:100F600009FA0CF001E007FA0CF000294FF00048F4
:100F700001DD18B90FE00ED140450CD319EB020981
:100F80005F4121B9404502D19F4329EA0209BBEBE9
:100F9000175F00D0761C2088000502D57B48784476
:100FA00002E07A487844193808AA302302F80A3057
:100FB000037C0AF10101002E0AF1020A53546A4629
:100FC00002DC4FF0300101E04FF031014FF0010839
:100FD0008DF8001002D0A6F2FF3603E059EA47016F
:100FE00000D06B4E002D02DC2178090704D54FF0AC
:100FF00002082E218DF80110C44600210BE0C7F332
:1010000003433F01C35C491C6D1E02F808300529EB
:1010100008F1010801DA002DF1DC00210CE000EB01
:101020001973491C1B786D1E082902F808304FEA15
:10103000091908F1010801DA002DF0DC21688B069E
:1010400002D516E0A8F10108E04505DD02EB080332
:1010500013F8013C302BF5D0B8F1000F09DD02EB9D
:10106000080313F8013C2E2B03D1090701D4A8F182
:101070000108002D05DD3E2102F808106D1E08F163
:101080000108407C002E02F8080008F1010804DA8B
:101090002D20764202F8080002E02B2002F808001A
:1010A0000A214FF47A70864208F101080BDB96FBA7
:1010B000F0F3303302F8083096FBF0F308F1010842
:1010C00000FB136601E0642E0CDB642096FBF0F35A
:1010D000303302F8083096FBF0F308F1010800FB0A
:1010E000136601E00A2E06DB96FBF1F0303002F8C1
:1010F000080008F1010896FBF1F001FB10603030A8
:1011000002F80800A16908F1010808EB050202EBEA
:101110000A00081AA0612078C00602D42046FFF712
:1011200052F9216A08AE01EB0A00206204E0D4E91A
:10113000012116F8010B9047BAF1010AF7D2207885
:10114000C00602D52046FFF73EF96E4609E016F8C4
:10115000010B3E280FD0D4E901219047206A401CA2
:101160002062B8F10108F2D22046FFF742F909B037
:101170000320BDE8F08F206A2844206203E0D4E910
:101180000121302090476D1EEBD3F8E7D6410000D7
:1011900002FCFFFF10B5436913B1AFF3008001E01B
:1011A000FFF74AF9012010BD127800F124010A70FE
:1011B00000224A700122EDE711684FF0FF32E9E7A3
:1011C00010B5436913B1AFF3008001E0FFF7D4F924
:1011D000012010BD128800F1240182840022C28403
:1011E0000122EDE711684FF0FF32E9E770B51646CE
:1011F0000C46054600F040F8036893F80101012809
:1012000006D0FF2C0FD8185D68B101202C7070BD7E
:10121000D3F807013246214603F207130344284658
:10122000BDE8704018474FF0FF3070BD754600F0C4
:10123000EBF8AE4605006946534620F007008546A8
:1012400018B020B5FFF704F8BDE820404FF00006C5
:101250004FF000074FF000084FF0000B21F007019E
:10126000AC46ACE8C009ACE8C009ACE8C009ACE8E1
:10127000C0098D467047000010B500F005F8001D4C
:1012800010BD00BF5D38000000487047E40000203A
:101290002DE9F0411F46044603260168072A01F4A0
:1012A000006004DB08B116A505E016A503E008B14F
:1012B00015A500E015A521F010002060A069C01E52
:1012C000A0610FB1401EA0612046FFF77CF84FB12E
:1012D000D4E9012138469047206A401C2062C01C96
:1012E000206206E0206AFAE7D4E9012115F8010B33
:1012F0009047761EF8D22046FFF77BF8BDE8F081D4
:101300004E414E006E616E00494E4600696E6600A9
:101310002DE9F047814616468AB0354878440DC815
:101320008DE80D0032487844801C03AC0DC884E879
:101330000D0041F69B300844372190FBF1F290FB01
:10134000F1F5A5F1800501FB12041B3C02D56442B6
:10135000012000E00020DFF898A080460027FA4432
:10136000AAF1BE0A0EE0E0070AD03246684607EB53
:10137000470101230AEB810100F0E2FA8DE8070042
:1013800064107F1C002CEED1194F7F44AE3F19E052
:10139000E80715D007EB04100DF1180A90E80E00CD
:1013A0008AE80E00C068F04201D1981908903246D0
:1013B000012306A903A800F0C3FA03AB83E80700E2
:1013C0006D10641C002DE3D14FF0010332466946D5
:1013D000B8F1000F03A802D000F09DFA01E000F080
:1013E000AFFAC9E90001C9F808200AB0BDE8F087E2
:1013F000E83E000010B50446AFF300802046BDE88B
:101400001040FEF710BF000000487047C4000020E5
:1014100001491820ABBEFEE72600020070475FEAD4
:10142000400C08BF91F0000F4FEA8C234FEAC12215
:1014300043EA51514FEA1C5018BF00F5F0404FEA03
:10144000300018BF41F000415FEA6C5C00F0298079
:10145000BCF1FF3F08BF40F080407047130C06BF4F
:1014600012044FF0100C4FF0000C130E04BF1202C8
:101470000CF1080C130F04BF12010CF1040C930FB4
:1014800004BF92000CF1020CD30F04BF52000CF108
:10149000010C11464FF00002A0F11F00A0EB0C0060
:1014A000704711F0004F08BF704731F000413FF422
:1014B000D5AF0B0C06BF09044FF0100C4FF0000C19
:1014C0000B0E04BF09020CF1080C0B0F04BF09013D
:1014D0000CF1040C8B0F04BF89000CF1020CCB0F34
:1014E00004BF49000CF1010CCCF12003A0EB0C006F
:1014F00022FA03F302FA0CF241EA030100F10100BF
:10150000704720F07F4C80EA030023F07F47ACEB6C
:10151000070303F57C5300F0004003F1FF032DE9BE
:1015200080494FEA154B09B44FEA144325EA0B4EA4
:1015300024EA03480FF2042606EB132749083E78F5
:101540005FEA320203FB0667C7F5000707FB06F6F2
:101550004FEA54374FEAD64606F1020607FB066CFF
:10156000CCF1005C4FEA1C472CEA074C07FB06F461
:101570000CFB06F504EB15464FEA961634BF002027
:101580004FF000404FEAD13706FB07FC4FEA1C4CF6
:101590000CFB0BF7D21B03FB0CF761EB07010CFBF9
:1015A0000EF7B0EB074072EB17420CFB08F734BFA5
:1015B000A2EB0742B2EB074261EB17414FEA0C4442
:1015C0004FEA910706FB07FC4FEA1C4C0CFB0BF79C
:1015D000B0EBC74072EB573203FB0CF734BFA2EB02
:1015E000C742B2EBC74261EB57310CFB0EF7B0EBD1
:1015F000C70072EB57720CFB08F734BFA2EBC702AF
:10160000B2EBC70261EB5771039F4FEA816141EA78
:10161000921104EBCC044FEAD1374FEA826206FB09
:1016200007FC42EA90124FEA80604FEA1C4C0CFB28
:101630000BF7D21B03FB0CF761EB07010CFB0EF75A
:10164000B0EB074072EB17420CFB08F734BFA2EB7C
:101650000742B2EB074261EB17414FEA8C554FEA64
:10166000910704EB9C2406FB07FC4FEA1C4C0CFB87
:101670000BF7B0EBC74072EB573203FB0CF734BFEC
:10168000A2EBC742B2EBC74261EB57310CFB0EF73E
:10169000B0EBC70072EB57720CFB08F734BFA2EB3C
:1016A000C702B2EBC70261EB577115EB4C254FEA4D
:1016B000816141EA92114FEA82624FEAD13742EAF0
:1016C000901206FB07FC44F100044FEA80604FEAE9
:1016D0001C4C0CFB0BF7D21B03FB0CF761EB070157
:1016E0000CFB0EF7B0EB074072EB17420CFB08F750
:1016F00034BFA2EB0742B2EB074261EB174115EB97
:101700001C154FEA813141EA92414FEA823242EAA6
:1017100090424FEA80304FEA0C7644F1000448EAE8
:1017200003434EEA0B484FF0000EB2EB080C71EB8E
:10173000030724BF624639464EEB0E0E4FF0000BF6
:101740000018524149414BEB0B0BB2EB080C71EB0B
:1017500003077BF1000B24BF624639464EEB0E0EA9
:101760004FF0000B0018524149414BEB0B0BB2EB11
:10177000080C71EB03077BF1000B24BF624639466E
:101780004EEB0E0E51EA020718BF46F0010616EBAB
:101790000E7655F1000254F1000103D5BDE8890130
:1017A000BDE80088BDE88901BDE80048B61952418E
:1017B00041EB0101A3F10103704780807F7E7D7CB6
:1017C0007B7A7978777676757473727171706F6ED3
:1017D0006E6D6C6C6B6A6A6968686766666564647E
:1017E000636362616160605F5F5E5E5D5D5C5C5B08
:1017F0005B5A5A5959585857575656555555545477
:10180000535352525251515050504F4F4F4E4E4DD4
:101810004D4D4C4C4C4B4B4B4A4A4A494949484820
:101820004847474747464646454545444444444360
:1018300043434342424242414141002B9C4630D403
:1018400077002BD01CB54FEA370703B44FF01000D8
:101850004FF01001BAF1000F06D0BCF1000FDCBF51
:1018600040F0080040F008014FF000000FBCBDE858
:1018700010400BF1010BBBF1010F08BF5FEA170726
:1018800022BF12F1010211F101014FF0004143F1B9
:10189000000300F0004043EA00007047F9D3570806
:1018A000D0E746EA064613F1400F4FEA16461FDD21
:1018B00013F1200FDFBF16430A46002120335B429D
:1018C000BED0C3F1200746EA064602FA07F74FEA00
:1018D000164646EA0706C3F1200722FA03F201FA88
:1018E00007F721FA03F14FF0000342EA0702A7E7E6
:1018F00046EA020646EA06464FEA164646EA010668
:10190000BCBF46EA0646360C4FF000034FF000021B
:101910004FF0000194E72DE9804C9A46934670B44D
:1019200091E8380007C831EA400C48BF34EA430C5C
:1019300003D5FFF7E6FDFFF780FFF0BCBDE8008CA4
:101940002DE9804C9A46934670B491E8380007C858
:1019500010F0804F08BF13F0804F03D100F005F85E
:10196000FFF76BFFF0BCBDE8008C20F07F4780EAFA
:10197000030023F07F4C07EB0C03A3F57C5300F02E
:101980000040A3F1FE0392F0000F00F0B38095F049
:10199000000F00F077802DE901494FEA11404FEA2E
:1019A000144621EA004800FB06FC24EA064708FB2F
:1019B00006F607FB08F800FB07F718EB06484CEBA8
:1019C000164C4FEA124B18EB07484FEA15464CEB02
:1019D000174022EA0B4E0BFB06FC25EA06470EFBDE
:1019E00006F607FB0EFE0BFB07F71EEB064E4CEB55
:1019F000164C4FF000061EEB074E4CEB174B18EB46
:101A00000B0840F1000018EB0E0B58EB000840F1FA
:101A100000008F1A4FF000013CBFC943661B14BF82
:101A2000B5EB040C00213CBFC943F61B4FEA174439
:101A30004EEA8E0E27EA04454FEA1C4704FB076274
:101A40002CEA074C05FB07F70CFB05F604FB0CFC26
:101A500016EB074642EB174216EB0C4642EB1C42D4
:101A60001BEB060658EB0202414146EA9E0601D5F1
:101A7000BDE80189B619524141EB0101A3F101030F
:101A8000BDE801894FEA14454FEA114724EA0546AB
:101A900021EA074C05FB07F406FB07F70CFB06F1F0
:101AA00005FB0CFC11EB074144EB17444FEA1247CE
:101AB00011EB0C4144EB1C4422EA074C05FB07F2F6
:101AC00006FB07F70CFB06F605FB0CFC16EB0746BE
:101AD00042EB174216EB0C4642EB1C456A1854F1D8
:101AE000000148BF7047B619524141EB0101A3F113
:101AF0000103704795F0000F37D04FEA11424FEACB
:101B0000144721EA024624EA074C02FB07F106FBD0
:101B100007F70CFB06F402FB0CFC14EB074441EB4B
:101B200017414FEA154714EB0C4441EB1C4125EAE1
:101B3000074C02FB07F506FB07F70CFB06F602FB5A
:101B40000CFC16EB074645EB174516EB0C4645EB30
:101B50001C42121951F1000148BF7047B619524199
:101B600041EB0101A3F1010370474FEA14454FEA2D
:101B7000114724EA054621EA074C05FB07F106FB5D
:101B800007F70CFB06F24FF0000605FB0CFC12EB0E
:101B9000074241EB174112EB0C4251EB1C4148BF8D
:101BA0007047921841EB0101A3F10103704721B185
:101BB000826842F00102826003E0826822F0010242
:101BC0008260704721B1826842F48072826003E0D3
:101BD000826822F4807282607047014600208A6821
:101BE00002F004020AB1012000E000207047014623
:101BF00000208A6802F008020AB1012000E00020FB
:101C00007047000030B502460020002350680F4C9A
:101C100020400D790C6844EA052420435060906808
:101C20000B4C2040D1E902542C434D7944EA450441
:101C300020439060D06A20F470000C7C641EE4B2F3
:101C4000234340EA0350D06230BD0000FFFEF0FFA6
:101C5000FDF7F1FFF0B504460D4600200021092DE7
:101C600011DDE068A5F10A0606EB4607072606FA2D
:101C700007F18843A5F10A0606EB460603FA06F1CA
:101C80000843E0600CE0206905EB4507072606FAEB
:101C900007F1884305EB450603FA06F10843206186
:101CA000072A0FDA606B561E06EB86071F2606FA18
:101CB00007F18843561E06EB860605FA06F108432F
:101CC000606322E00D2A0FDA206BD61F06EB860731
:101CD0001F2606FA07F18843D61F06EB860605FA8B
:101CE00006F10843206310E0E06AA2F10D0606EB5E
:101CF00086071F2606FA07F18843A2F10D0606EBB8
:101D0000860605FA06F10843E062F0BD816841F0FD
:101D100008018160704721B1826842F4A0028260AC
:101D200003E0826822F4A00282607047816841F07B
:101D3000040181607047000000B591B001214FF4AB
:101D4000017001F0E7FB0121084601F0C3FB4FF4ED
:101D5000004001F0B3FB00208DF843000120ADF8F6
:101D6000400003208DF8420010A92F4800F063FBCB
:101D700000200B900E9001208DF831004FF4602070
:101D80000D9001208DF83C0000208DF830000BA94B
:101D90002648FFF737FF0523012200212348FFF7DC
:101DA00059FF234800F082FA20484C3000908015FB
:101DB0000690002004901F4801904FF48060079027
:101DC0000020059001200390002002902020089020
:101DD0000002099000200A906946154800F00CFBAB
:101DE0000121134800F056FA01211048FFF7EAFEDE
:101DF00001210E48FFF7DBFE0C48FFF787FF00BF0D
:101E00000A48FFF7F4FE0128FAD00848FFF78EFFD2
:101E100000BF0648FFF7E1FE0128FAD00121034880
:101E2000FFF779FF11B000BD000801400024014018
:101E3000080002403A00002001460A46002A00DA63
:101E4000524290B2704700000548008840F6FF718A
:101E5000081A6421484340F6FF71B0FBF1F0704767
:101E60003A00002010B501F017F81749088804213E
:101E700001F0A8FD2D2001F095FD134948880221AD
:101E800001F0A0FD2D2001F08DFD0F498888022171
:101E900001F098FD202001F085FD0B49C888022142
:101EA00001F090FD3A2001F07DFD074908890221EB
:101EB00001F088FD3A2001F075FD034948890221AF
:101EC00001F080FD10BD00002800002070B5044620
:101ED0000D4615A001F093FDFFF7C4FF14A001F01B
:101EE0008EFD04F00300032803D112A001F087FD4A
:101EF00009E004F0020018B114A001F080FD02E036
:101F000016A001F07CFD19A001F079FDFFF79CFF00
:101F10000646032101F056FD17A001F070FD15B92A
:101F200016A001F06CFD70BD5B5741524E5D200064
:101F3000202D200053686F636B20616E642054690C
:101F40006C742044657465637465640053686F63E2
:101F50006B204465746563746564000054696C7437
:101F60002044657465637465640000002C204C692E
:101F70006768743A20000000250D0A005B45727204
:101F80006F725D20416C61726D206C6F67207761AC
:101F900073206E6F742073746F7265642028466CB2
:101FA00061736820616273656E74206F722066755C
:101FB0006C6C292E0D0A000070B500F029FD044656
:101FC00000F06AFF34A20121084601F03BFA3748CD
:101FD000C28802230621012001F012FA3348028947
:101FE00002230921012001F00BFA30484289022323
:101FF0000C21012001F004FA2DA20121022001F0A0
:1020000021FA04232F4802880721022001F0F8F961
:10201000FFF71AFF054603232A460C21022001F090
:10202000EFF92948007828B128A20121032001F006
:1020300009FA16E02A48007828B12AA201210320D3
:1020400001F000FA0DE02C48007828B92BA20121FC
:10205000032001F0F7F904E02DA20121032001F093
:10206000F1F930A20121042001F0ECF900F0BEFCEE
:10207000054603232A460521042001F0C1F942F256
:102080000F70844200D90446042322460A211846D0
:1020900001F0B6F970BD000054494D452030303A8A
:1020A00030303A303020202000000000280000208E
:1020B0004C494748542030303030203030302520D3
:1020C000000000003A000020520000205354415408
:1020D0004520534C45455020202020200000000082
:1020E000510000205354415445205741524E494E0F
:1020F000472020200000000050000020535441548D
:1021000045204D5055204552524F522000000000AE
:1021100053544154452041435449564520202020E2
:10212000000000004C4F4720303030204630303027
:1021300030202020000000002DE9FC41054600244D
:102140003B48007808B9BDE8FC813A483A493B4B26
:102150003B4ACDE900103B493B4800F0F1FC3A48CE
:10216000B0F90000FFF768FEB0F5A05F0FD2354868
:10217000B0F90000FFF760FEB0F5A05F07D230486D
:10218000B0F90000FFF758FEB0F5A05F01D344F0AE
:1021900002042D48B0F90000FFF74EFEB0F52F7F86
:1021A00007D22848B0F90000FFF746FEB0F52F7FB0
:1021B00001D344F001041CB30020244908602448E2
:1021C000007828BB01202249087000F0BFFA00F017
:1021D00045FE07461A48B0F90000CDE90004194849
:1021E000B0F900301848B0F900201A480188384684
:1021F00000F0CEFA064631462046FFF767FE15E0AE
:102200001348007820B11148006810B90F480560E4
:102210000CE00E480068281AB0F5FA6F06D30020CB
:102220000B4908700949086000F088FA00BF8AE786
:10223000500000204E0000204C0000204A000020EA
:1022400048000020460000204400002054000020E8
:10225000510000203A00002008B5014600200090FF
:10226000034800900098084400900098008808BD3A
:10227000006C004008B500220092044A0092009AC7
:1022800002440092009A116008BD0000006C0040FA
:1022900000BFFEE721B1026842F00102026004E0E3
:1022A00002684FF6FE731A400260704701684FF6ED
:1022B000FE72114001600021016041608160C160D7
:1022C0004B49884208D14A490839496841F00F0111
:1022D000474A083A51608AE045491431884208D19A
:1022E00043490839496841F0F001414A083A5160D0
:1022F0007DE03F492831884208D13D490839496885
:1023000041F470613A4A083A516070E038493C3112
:10231000884208D136490839496841F47041344A45
:10232000083A516063E032495031884208D130495F
:102330000839496841F470212D4A083A516056E045
:102340002B496431884208D129490839496841F448
:102350007001274A083A516049E02549783188429E
:1023600008D123490839496841F07061204A083A88
:1023700051603CE01F49884206D1011F096841F0C5
:102380000F01021F116032E01A491431884208D14E
:102390001849091F096841F0F001164A121F11601F
:1023A00025E014492831884208D11249091F0968DB
:1023B00041F470610F4A121F116018E00D493C3161
:1023C000884208D10B49091F096841F47041094A44
:1023D000121F11600BE007495031884207D10549AF
:1023E000091F096841F47021024A121F11607047E9
:1023F000080002400804024010B50022026847F6B7
:10240000F0739A430C6A8B6823430C6923434C692D
:1024100023438C692343CC6923434C6A23438C6A4E
:1024200023431A430260CB6843600B6883604B68A8
:10243000C36010BD70472DE9F0410246002500261B
:10244000002000230024002791F803C00CF00F05A2
:1024500091F803C00CF0100CBCF1000F03D091F800
:1024600002C04CEA050591F800C0BCF1000F31D064
:10247000146800202BE04FF0010C0CFA00F3B1F8C7
:1024800000C00CEA03069E4220D183004FF00F0CDF
:102490000CFA03F7BC4305FA03FC4CEA040491F878
:1024A00003C0BCF1280F06D14FF0010C0CFA00FC60
:1024B000C2F814C00AE091F803C0BCF1480F05D17E
:1024C0004FF0010C0CFA00FCC2F810C0401C0828A8
:1024D000D1D31460B1F800C0BCF1FF0F34DD5468F3
:1024E00000202EE000F1080C4FF0010808FA0CF370
:1024F000B1F800C00CEA03069E4221D183004FF0E0
:102500000F0C0CFA03F7BC4305FA03FC4CEA040475
:1025100091F803C0BCF1280F05D100F1080C08FAAE
:102520000CF8C2F8148091F803C0BCF1480F07D131
:1025300000F1080C4FF0010808FA0CF8C2F81080FE
:10254000401C0828CED35460BDE8F081416170473B
:10255000016170470AB1016100E04161704700BF4D
:10256000FEE721B1028842F48062028004E0028822
:102570004FF6FF331A400280704770B502460024C0
:10258000002500230020958A138B1B0445EA0306CF
:1025900026F07F4404EA01068E4201D1012000E0CA
:1025A000002070BD21B1028842F00102028004E0E7
:1025B00002884FF6FE731A400280704721B10288EC
:1025C00042F48072028004E002884FF6FF631A40F2
:1025D0000280704721B1028842F40072028004E058
:1025E00002884FF6FF531A40028070472DE9F043EE
:1025F00085B004460D460026B1460427DFF8CC809E
:10260000A6884FF6C0700640684600F09DFFDDF8D2
:1026100008802F48B8FBF0F01FFA80F946EA090657
:10262000A68020884FF6FE710840208000262949A8
:10263000286888420CD828684000B8FBF0F087B2C0
:10264000042F00DA04273E4309F10100208427E02B
:10265000E8884BF6FF71884206D1286800EB4000FD
:10266000B8FBF0F087B209E0286800EBC00101EB8D
:102670000010B8FBF0F087B247F48047C7F30B00B7
:1026800008B947F0010747F4004006434FF496703D
:1026900009FB00F04FF47A7190FBF1F0401C2084AC
:1026A000A683208840F00100208026884FF6F53070
:1026B0000640A8886989084306432680A889298995
:1026C0000843208105B0BDE8F083000000127A00C5
:1026D00040420F00A08601000146088AC0B2704740
:1026E00012B141F0010102E04FF6FE731940018280
:1026F00070470182704700004CF6CC4001490860E9
:1027000070470000003000404AF6AA2001490860E6
:1027100070470000003000400149486070470000E9
:1027200000300040014988607047000000300040E0
:1027300001490860704700000030004010B50221D8
:102740000148FFF705FF10BD0008014010B5022148
:102750000148FFF7FBFE10BD0008014008B501214C
:10276000042000F0D7FE10208DF803000620ADF8FD
:10277000000003208DF8020069460448FFF75BFE65
:1027800006210248FFF7E4FE08BD000000080140F2
:102790002DE9F04393B004460D4616461F46DDE989
:1027A0001A892348007818B122480088802803D36A
:1027B000002013B0BDE8F0831F480068069007941E
:1027C000ADF82050ADF82260ADF82470ADF8268049
:1027D0008DF8289006A90BA800F094F815490988EF
:1027E000002202EB411020220BA901F05CFF1149ED
:1027F0000988002202EB411020220BA901F095FF6D
:1028000001A90BA800F03CF818B10699019888427C
:1028100001D00020CDE707480088401C054908800A
:1028200005480068401C044908600120C1E7000019
:1028300060000020580000205C00002030B50246F7
:102840000B464FF6FF70002117E0555C80EA05202B
:1028500000240EE000F400452DB141F2210585EA87
:102860004005A8B203E04FF6FF7505EA4000651C7D
:10287000ECB2082CEED34D1CA9B29942E5DB30BD79
:1028800070B504460D462078452808D160784C285C
:1028900005D1A0784F2802D1E078472801D0002048
:1028A00070BD04F1160000F02DF9064616212046F1
:1028B000FFF7C4FFB04201D00020F1E7201D00F077
:1028C00027F9286004F1080000F022F9686004F19B
:1028D0000C0000F017F9288104F10E0000F012F945
:1028E00000B2688104F1100000F00CF900B2A88178
:1028F00004F1120000F006F900B2E881207D28748E
:102900000120CDE72DE9F04104460D46002603E005
:10291000FF20A055701CC6B2202EF9D34520207090
:102920004C2060704F20A0704720E070201D296867
:1029300000F0FEF804F10800696800F0F9F8298950
:1029400004F10C0000F0F0F8688981B204F10E0087
:1029500000F0EAF8A88981B204F1100000F0E4F870
:10296000E88981B204F1120000F0DEF8287C2075BD
:102970000020607516212046FFF760FF07463946A4
:1029800004F1160000F0D0F8BDE8F08108B5134856
:10299000007808B9002008BD002001F002FF0422E1
:1029A0006946002001F0C1FE9DF80000FF280BD110
:1029B0009DF80100FF2807D19DF80200FF2803D1F0
:1029C0009DF80300FF2801D00020E4E7002004491F
:1029D000088001200349086000BFDCE76000002098
:1029E000580000205C0000208020704701480088CB
:1029F0007047000058000020014800887047000020
:102A0000620000200148007870470000610000204B
:102A100002480088C0F18000400170475800002043
:102A200000B58DB000202049088001201F490860B2
:102A300000201F49087001F032FE1E491E4801F0B7
:102A400096FE1D48007848B11B480078FF2805D045
:102A50001848008844F21701884201D00DB000BD2B
:102A600001201349087017E00F490988002202EB82
:102A70004110202205A901F058FE694605A8FFF77C
:102A8000FFFE00B90CE00098401C084908600648A9
:102A90000088401C04490880034800888028E3D34C
:102AA00000BF00BFDAE70000580000205C000020F3
:102AB00060000020620000206100002001480078D2
:102AC000704700006000002030B589B004460D4614
:102AD0000A48007818B10A480088844202DB0020C6
:102AE00009B030BD002101EB4410202201A901F002
:102AF0001CFE294601A8FFF7C3FEF1E76000002095
:102B000058000020014608784A7840EA02207047C1
:102B1000014608784A7840EA02208A7840EA024072
:102B2000CA7840EA0260704701700A12427070472A
:102B300001700A0A42700A0C82700A0EC270704755
:102B40002DE9F05F06460F4690469946DDE90AAB4F
:102B50003B2000F0A3F804463C2000F09FF8054617
:102B600045EA042000B230803D2000F097F804468A
:102B70003E2000F093F8054645EA042000B2388074
:102B80003F2000F08BF80446402000F087F805460F
:102B900045EA042000B2A8F80000432000F07EF8C7
:102BA0000446442000F07AF8054645EA042000B2C5
:102BB000A9F80000452000F071F80446462000F016
:102BC0006DF8054645EA042000B2AAF80000472047
:102BD00000F064F80446482000F060F8054645EA35
:102BE000042000B2ABF80000BDE8F09F10B57520DE
:102BF00000F054F810BD000000B585B00121880533
:102C000000F078FC0121082000F084FC1C208DF8E5
:102C100013004FF44060ADF8100003208DF812004F
:102C200004A91C48FFF707FC0020ADF804004CF293
:102C3000503000904BF6FF70ADF806004FF4806006
:102C4000ADF80A000001ADF80C000020ADF8080056
:102C500069461148FFF7CAFC01210F48FFF7A2FCA3
:102C600001216B2000F078F800216C2000F074F84E
:102C70000921192000F070F806211A2000F06CF8E4
:102C800018211B2000F068F818211C2000F064F8BF
:102C900005B000BD000C01400058004070B504466E
:102CA00001212148FFF78AFC20491F4800F042F823
:102CB0000022D0211C48FFF713FD1D491A4800F0DF
:102CC00039F821461848FFF714FD1949891C1648A0
:102CD00000F030F801211448FFF770FC1349124846
:102CE00000F028F80122D0210F48FFF7F9FC0F4926
:102CF000491C0D4800F01EF800210B48FFF731FC7D
:102D000001210948FFF766FC08493F31064800F0F9
:102D100011F80548FFF7E0FC054601210248FFF7DE
:102D200020FC284670BD0000005800400100030050
:102D30008200070070B505460E4642F2107402E0AC
:102D4000641E04B905E031462846FFF716FC012849
:102D5000F6D100BF70BD000070B504460D460121DC
:102D60001348FFF72BFC13491148FFF7E3FF00223C
:102D7000D0210F48FFF7B4FC0F490D48FFF7DAFFE9
:102D800021460B48FFF7B5FC0B49891E0848FFF7A1
:102D9000D1FF29460648FFF7ACFC0749891C0448C7
:102DA000FFF7C8FF01210248FFF714FC70BD0000C7
:102DB00000580040010003008200070000BFFEE74A
:102DC0002DE9F0410446002540F2B2770BE0384689
:102DD00000F048F810B14FF4B77001E040F26D1008
:102DE0000544781C87B22088B842F0DC012606E052
:102DF0002088314600F020F80544701CC6B2608877
:102E0000B042F5DCA088401E05440A486843E188CA
:102E1000C1EB4112C2EB012100EB01102189C1EB92
:102E2000011100EB8100618900EB0108A8F5E14088
:102E3000BDE8F0818051010070B505460C46022CBA
:102E400005D1284600F00EF808B11D2070BD601EA7
:102E50000149085CFAE70000144B000810B500F0C7
:102E600023FC10BD01464FF4C870B1FBF0F200FB2B
:102E7000121008B9012070476420B1FBF0F200FB8A
:102E8000121008B90020F6E701F0030008B901208C
:102E9000F1E70020EFE7000010B500F005FC044664
:102EA000014900F027F810BD2800002070B5064643
:102EB0000C461546172E03D83B2C01D83B2D01D9C3
:102EC000002070BDFFF7E8FF0348C68004814581FC
:102ED00000F004F80120F4E72800002010B50448B1
:102EE000FFF76EFF044600F027FC00F043FC10BD26
:102EF000280000202DE9F35F0C46009800F5E14A18
:102F00002648BAFBF0F5BAFBF0F100FB11A740F23E
:102F1000B2784FF0010900BF4046FFF7A3FF10B1A0
:102F20004FF4B77001E040F26D1083465D4500D26A
:102F300006E0A5EB0B0508F101001FFA80F8EBE7AE
:102F400000BF00BF49464046FFF776FF0646B54240
:102F500000D205E0AD1B09F1010000F0FF09F1E727
:102F600000BFA4F80080A4F80290681CA0804FF471
:102F70006160B7FBF0F0E0804FF46160B7FBF0F107
:102F800000FB11703C21B0FBF1F020813C20B7FB2D
:102F9000F0F100FB11706081BDE8FC9F80510100E1
:102FA00070B504460D4629462046FFF7A3FF70BDC5
:102FB00000B587B00121042000F0ACFA012108031C
:102FC00000F0A8FA10208DF81B00ADF818000320BF
:102FD0008DF81A0006A92148FFF72DFA18208DF860
:102FE0001B00A020ADF8180003208DF81A0006A9D8
:102FF0001A48FFF720FA48208DF81B004020ADF852
:10300000180003208DF81A0006A91448FFF713FAD8
:103010004FF48270ADF806003020ADF810000020AB
:10302000ADF80C00ADF80A00ADF80800ADF80400EA
:10303000ADF812004FF40070ADF80E000720ADF8A7
:10304000140001A9064800F0CBFB0121044800F060
:10305000ADFB012000F02CF807B000BD00080140D6
:103060000030014010B5002000F022F810BD10B56E
:10307000012000F01DF810BD10B5044600BF02216C
:103080000A4800F09FFB0128F9D12146074800F0CB
:10309000A5FB00BF0121054800F094FB0128F9D1F0
:1030A000024800F098FBC0B210BD000000300140A3
:1030B00010B50446224610210148FFF74BFA10BD17
:1030C000000801407047000070B5002100230F2266
:1030D000C47804B3154C246804F4E064C4F5E064D7
:1030E000210AC1F10403CA40447804FA03F1847848
:1030F0001440214309010E4C0678A155047804F0D0
:103100001F050124AC4005786D11AD0005F1E025E7
:10311000C5F8004109E0047804F01F050124AC4023
:10312000044D0678761145F8264070BD0CED00E0A0
:1031300000E400E080E100E002490143024A11603E
:10314000704700000000FA050CED00E010B5002803
:1031500007DA0A07140E054A00F00F031B1FD454A8
:1031600003E00A07130E024A135410BD18ED00E0E5
:1031700000E400E070B500240EE00021204600F0DD
:10318000F4F8002504E0002000F080F9681CC5B2C6
:10319000802DF8DB601CC4B2082CEEDB70BD000093
:1031A00008B50121082000F0B5F914208DF80300BE
:1031B00003208DF802004FF48070ADF800006946DE
:1031C0000A48FFF738F94FF40070ADF8000069467F
:1031D0000648FFF730F9012211020448FFF7BAF957
:1031E000012251020148FFF7B5F908BD000C01406A
:1031F00070B50546002419E080202041284008B120
:10320000012000E0002002464FF400710E48FFF755
:10321000A1F9012211020C48FFF79CF900224FF49A
:1032200080710948FFF796F9601CC4B2082CE3DBF3
:10323000012211020448FFF78DF900224FF480713A
:103240000148FFF787F970BD000C014010B501225D
:1032500051020A48FFF77EF9012211020748FFF7E1
:1032600079F900224FF400710448FFF773F9002246
:103270004FF480710148FFF76DF910BD000C01405B
:1032800010B500224FF400710648FFF763F90122E0
:1032900011020448FFF75EF9012251020148FFF7CD
:1032A00059F910BD000C014070B5002406E000255E
:1032B00000E06D1CB5F57A7FFBD3641CB4F57A7F12
:1032C000F5D3FFF76DFFAE2000F0D0F8D52000F069
:1032D000CDF8802000F0CAF8A82000F0C7F83F2001
:1032E00000F0C4F8D32000F0C1F8002000F0BEF8D0
:1032F000402000F0BBF8A12000F0B8F8C82000F092
:10330000B5F8DA2000F0B2F8122000F0AFF8812012
:1033100000F0ACF8CF2000F0A9F8D92000F0A6F812
:10332000F12000F0A3F8DB2000F0A0F8302000F03E
:103330009DF8A42000F09AF8A62000F097F88D20C0
:1033400000F094F8142000F091F8AF2000F08EF80F
:10335000FFF710FF70BD10B50246012000E050439A
:103360000B1EA1F10101FAD110BD70B505460C4646
:1033700045F0B00000F07AF8102141EA141000F096
:1033800075F804F00F0000F071F870BD2DE9F04100
:1033900005460E461746721ED206110E6A1E5206CA
:1033A000100EFFF7E2FF002409E0A7F12001134A05
:1033B00002EB0111085D00F069F8601CC4B2082C32
:1033C000F3DB721ED206110E6A1E012303EB4202CA
:1033D000D0B2FFF7CAFF00240BE0A7F12001074A93
:1033E00002EB011204F10801505C00F04FF8601C80
:1033F000C4B2082CF1DBBDE8F0810000204B0008CE
:103400002DE9F04780460E4617461D46002415E07C
:10341000281B411E0A20FFF79EFFB7FBF0F00A2190
:10342000B0FBF1F201FB120000F130093019C1B21A
:103430004A464046FFF7AAFF601CC4B2AC42E7DB35
:10344000BDE8F0872DE9F04107460E4615460024F9
:1034500007E02A5D3019C1B23846FFF797FF601CBC
:10346000C4B2285D0028F4D1BDE8F08110B504464F
:10347000FFF7ECFE7820FFF7BBFE0020FFF7B8FE59
:103480002046FFF7B5FEFFF7FBFE10BD10B5044662
:10349000FFF7DCFE7820FFF7ABFE4020FFF7A8FE29
:1034A0002046FFF7A5FEFFF7EBFE10BD01490862BD
:1034B0007047000000000E427047000001460020E7
:1034C000034A506820F440400843506070470000B1
:1034D0000010024029B1064A52690243044B5A6166
:1034E00004E0034A52698243014B5A61704700006D
:1034F0000010024029B1064AD2690243044BDA6146
:1035000004E0034AD2698243014BDA61704700004C
:103510000010024029B1064A92690243044B9A61A5
:1035200004E0034A92698243014B9A6170470000AC
:10353000001002400348406A40F080700149486230
:10354000704700000010024030B500210022002426
:1035500000232D4D6D6805F00C0121B1042905D023
:10356000082923D105E0294D056022E0274D05609B
:103570001FE0254D6D6805F47012234D6D6805F44C
:103580008034022505EB92421CB9214D554305605C
:103590000BE01D4D6D6805F400351DB11C4D554304
:1035A000056002E0194D5543056002E0174D0560C6
:1035B00000BF00BF144D6D6805F0F0010909154DFD
:1035C0006B5C0568DD4045600F4D6D6805F4E0619A
:1035D000090A104D6B5C4568DD4085600A4D6D68D9
:1035E00005F46051C90A0B4D6B5C4568DD40C56050
:1035F000054D6D6805F44041890B074D6B5CC5684E
:10360000B5FBF3F5056130BD0010024000127A00F1
:1036100000093D00140000202400002010B50146E0
:103620000022002300204A11012A02D1094C2368FC
:1036300006E0022A02D1074C236A01E0054C636AC6
:1036400001F01F02012494401C400CB1012000E055
:10365000002010BD001002400149086070470000C2
:103660008004424201490860704700003C04424225
:103670000249096A0143014A116270470010024081
:103680000348008840F0100001490880704700009E
:1036900004280040034800884FF6EF7108400149B4
:1036A0000880704704280040002103480188001F5B
:1036B000008841EA004070471C28004010B50121F5
:1036C0004FF0C050FFF716FF0120FFF7EFFE01207B
:1036D000FFF7C2FF00BF6120FFF7A0FF0028FAD06C
:1036E0000420FEF7B9FD4AF2A65188421AD04FF4E1
:1036F0000070FFF7BDFF0120FFF7B4FF00F044F8B2
:1037000000F038F849F63F4000F024F800F032F8B5
:10371000FFF7E4FB4AF2A6510420FEF7ABFD00F0F0
:1037200029F806E00120FFF79DFF00F02DF800F0DA
:1037300021F8FFF7B1FB10BD00B50246FFF7A0FF6F
:10374000100C03490880091D0A80FFF7A3FF00BD84
:103750001828004000B50246FFF792FFC2F303406D
:1037600003490880091D0A80FFF794FF00BD00008F
:103770000828004000BF0348008800F0200000280F
:10378000F9D0704704280040074800884FF6F771C9
:1037900008400549088000BF0348008800F0080081
:1037A0000028F9D0704700000428004021B10288A9
:1037B00042F04002028004E002884FF6BF731A40D4
:1037C000028070470246002013890B400BB1012094
:1037D00000E000207047014688897047818170476A
:1037E00010B50022028802F441520B884C88234312
:1037F0008C882343CC8823430C8923434C8923435F
:103800008C892343CC8923431A430280838B4FF254
:10381000FF74234083830B8A038210BD704700002E
:10382000024908780021014A117070473D000020CC
:1038300070B505460E461348007800B10EB9002059
:1038400070BD002240F225510F4800F08BFE00248D
:1038500004E00E48005D2855601C84B2601CB04234
:1038600003D20A48005D0028F3D1002028550549FD
:103870000870012240F22551034800F073FE012038
:10388000DEE700003C00002000380140640000201A
:10389000024908780021014A117070473E0000205B
:1038A00000B587B0012144F20400FFF733FE182071
:1038B0008DF81B004FF40070ADF8180003208DF850
:1038C0001A0006A92248FEF7B6FD48208DF81B0015
:1038D0004FF48060ADF8180006A91D48FEF7ABFD57
:1038E0004FF4165002900020ADF814000C20ADF8F3
:1038F00012000020ADF81000ADF80E00ADF80C007D
:1039000002A9144800F054FE4FF4A060FFF714FC25
:1039100025208DF8040001208DF807008DF80500A2
:103920008DF8060001A8FFF7CFFB00200A490870B8
:103930000A4908700A490870012240F225510548D9
:1039400000F010FE0121034800F0C9FD07B000BDE2
:1039500000080140003801403C0000203D000020EC
:103960003E00002010B50246012000E050430B1E2F
:10397000A1F10101FAD110BD0FB400B5A1B023A887
:103980000090802101A8009B229AFCF773FC002084
:1039900000908DF8830001A800F031F821B05DF8A7
:1039A00014FB000010B504462146054800F071FEE6
:1039B00000BF8021024800F09EFD0028F9D010BD14
:1039C000003801402DE9F04106460C46002512E082
:1039D000601B411E0A20FFF7C5FFB6FBF0F00A216D
:1039E000B0FBF1F201FB120000F130073846FFF79F
:1039F000D9FF681CC5B2A542EADBBDE8F08110B56D
:103A0000044603E02078FFF7CDFF641C20780028EF
:103A1000F8D110BD10B500F001F810BD0CB50020B4
:103A2000019000903348006840F4803031490860CC
:103A300000BF3048006800F4003000900198401C3E
:103A40000190009818B90198B0F5A06FF1D12948FC
:103A5000006800F4003010B10120009001E0002067
:103A600000900098012843D12348006840F01000DE
:103A7000214908600846006820F0030008600846F5
:103A8000006840F0020008601A4840681949486020
:103A90000846406848600846406840F480604860D6
:103AA0000846406820F47C1048600846406840F4AE
:103AB000E81048600846006840F08070086000BF69
:103AC0000C48006800F000700028F9D009484068F0
:103AD00020F00300074948600846406840F00200B3
:103AE000486000BF0348406800F00C000828F9D186
:103AF0000CBD0000001002400020024010B5FFF78E
:103B0000CBF9034800F02CFA02A0FFF778FF10BDB4
:103B1000280000200D0A0000F0B585B00646FEF72B
:103B200065FF0446FEF7CAFF20B90FA0FFF767FF45
:103B300005B0F0BD1CB914A0FFF761FFF8E7A6427D
:103B400000DD2646A01B87B23D4609E069462846AF
:103B5000FEF7BAFF10B1684600F08EF9681C85B216
:103B6000A542F3DB00BFE3E75B4572726F725D2035
:103B7000573235513634206E6F7420646574656336
:103B80007465642E0D0A00005B496E666F5D204E01
:103B90006F206C6F67732E0D0A00000010B525A012
:103BA000FFF72DFF00F0F2FB044600F048FB24A0D5
:103BB000FFF725FFFEF782FF08B124A000E025A053
:103BC0000446FFF71CFF25A0FFF719FFFEF71AFFB9
:103BD0000446022100F010FBFEF70EFF044604210C
:103BE00000F00AFB1FA0FFF70AFFFEF7FFFE0446E6
:103BF00000F025FB2F20FFF7D5FEFEF7F5FE04466B
:103C000000F01DFB1BA0FFF7FAFEFEF701FF0446C4
:103C100000F015FB1CA0FFF7F2FE00F023FE08B138
:103C200022A000E023A00446FFF7E9FE23A0FFF74F
:103C3000E6FE10BD757074696D655F6D733A2000A6
:103C40000D0A666C6173683A2000000052454144D9
:103C5000590000004552524F5200000020284944AC
:103C600020307800290D0A6C6F675F636F756E7482
:103C70003A2000000D0A666C6173685F72656D61C1
:103C8000696E696E673A20002062797465730D0A67
:103C90007761746368646F673A204F4E2C206C61C3
:103CA00073745F72657365743A2000004957444726
:103CB000000000004F544845520000000D0A00006B
:103CC00010B503A0FFF79BFE0AA0FFF798FE10BDFA
:103CD0000D0A4D6963726F20456E7669726F6E6D65
:103CE000656E74204C6F67676572205368656C6CF5
:103CF0000D0A0000547970652068656C702C207482
:103D000068656E2070726573732053656E642E0D46
:103D10000A3E200070B50446002520785B2801D1BA
:103D20000125641C2078302826DB2078392823DC04
:103D30006078302820DB607839281DDCA0783A28AC
:103D40001AD1E078302817DBE078392814DC2079A4
:103D5000302811DB207939280EDC60793A280BD124
:103D6000A079302808DBA079392805DCE0793028F3
:103D700002DBE079392801DD002070BD25B1207A11
:103D80005D2804D1607A10B91DB9207A08B10020ED
:103D9000F3E766782078303800EB800006EB4000CF
:103DA000303808702679E078303800EB800006EB78
:103DB000400030381070E679A079303800EB800090
:103DC00006EB4000303818700878182807D21078B1
:103DD0003C2804D218783C2801D20120CDE70020ED
:103DE000CBE730B502460B46002100240DE01078E9
:103DF000303801EB810500EB4501B1F5803F01D37F
:103E0000002030BD521C601CC4B21078302802DB88
:103E100010783928EBDD0CB1107808B10020F0E7FC
:103E200019800120EDE7000000B599B0FFF730FDE3
:103E300010B108A0FFF7E3FD602101A8FFF7F8FC2F
:103E400028B101A800F0B6F80AA0FFF7D8FD19B014
:103E500000BD00005B4572726F725D20436F6D6D37
:103E6000616E6420746F6F206C6F6E672E0D0A3E5A
:103E7000200000003E2000003EB504466946606810
:103E8000FFF78EF82320FFF78DFD206800F0D7F9AB
:103E90002020FFF787FD684600F062F822A0FFF7B8
:103EA000AEFD207C00F00300032803D11FA0FFF724
:103EB000A6FD0AE0207C00F0020018B11EA0FFF76A
:103EC0009EFD02E01EA0FFF79AFD208940F6FF71DB
:103ED000081A6421484340F6FF71B0FBF1F51AA0BF
:103EE000FFF78DFD208900F0AAF92820FFF75AFD81
:103EF000284600F0A4F917A0FFF781FDB4F90A00E5
:103F000000F090F92C20FFF74DFDB4F90C0000F003
:103F100089F92C20FFF746FDB4F90E0000F082F974
:103F20000EA0FFF76CFD3EBD205B000053484F43E1
:103F30004B2B54494C54000053484F434B00000056
:103F400054494C54000000005D206C696768743D62
:103F5000000000002529206163633D000D0A000078
:103F600010B5044620880421FFF72CFD2D20FFF713
:103F700019FD60880221FFF725FD2D20FFF712FDB6
:103F8000A0880221FFF71EFD2020FFF70BFDE0882F
:103F90000221FFF717FD3A20FFF704FD20890221D7
:103FA000FFF710FD3A20FFF7FDFC60890221FFF7C3
:103FB00009FD10BD1FB5044634A12046FCF7C0F929
:103FC00010B9FFF7EBFD5FE033A12046FCF7B8F92D
:103FD00010B9FFF793FD57E00B2231A12046FCF703
:103FE00063F9C0B901AB02AA03A904F10B00FFF702
:103FF00091FE60B19DF804209DF808109DF80C001A
:10400000FEF754FF18B129A0FFF7F9FC3CE02EA001
:10401000FFF7F5FC38E00C2235A12046FCF744F907
:1040200088B9694604F10C00FFF7DBFE38B1BDF832
:10403000000020B1BDF80000FFF76EFD24E030A0C5
:10404000FFF7DDFC20E038A12046FCF779F950B9F4
:10405000FEF79CFC18B138A0FFF7D1FC14E03DA09E
:10406000FFF7CDFC10E043A12046FCF769F930B919
:1040700042A0FFF7C4FC4CA0FFF7C1FC04E020788D
:1040800010B153A0FFF7BBFC1FBD00007379735F35
:10409000696E666F000000006765745F727463008C
:1040A0007365745F727463202D7420005B537563B5
:1040B000636573735D205254432055706461746569
:1040C000642E0D0A000000005B4572726F725D2065
:1040D00055736167653A207365745F727463202D50
:1040E000742068683A6D6D3A73730D0A0000000021
:1040F000726561645F6C6F67202D6E2000000000A8
:104100005B4572726F725D2055736167653A20720C
:104110006561645F6C6F67202D6E203C636F756E08
:10412000743E0D0A00000000666F726D61745F6678
:104130006C617368000000005B5761726E5D204126
:104140006C6C206C6F677320636C65617265642EA4
:104150000D0A00005B4572726F725D20466C6173E0
:1041600068206572617365206661696C65642E0DF7
:104170000A00000068656C70000000007379735FCE
:10418000696E666F207C206765745F727463207C43
:10419000207365745F727463202D742068683A6DB3
:1041A0006D3A73730D0A0000726561645F6C6F672E
:1041B000202D6E203C636F756E743E207C20666FF0
:1041C000726D61745F666C6173680D0A00000000B7
:1041D0005B4572726F725D20556E6B6E6F776E20ED
:1041E000636F6D6D616E642E205479706520686513
:1041F0006C702E0D0A00000070B505460C460BE0F1
:10420000601EC4B2A006060E25FA06F101F00F01E9
:10421000034A505CFFF7C6FB002CF1D170BD0000D3
:104220001051000870B504462546002D03DA2D20F4
:10423000FFF7B8FB6D42284600F001F870BD3EB5AF
:104240000446002500BF0A20B4FBF0F100FB11403A
:10425000303029466A1CD5B20DF801000A20B4FBA3
:10426000F0F40CB10A2DEED306E0691EC9B20D467A
:104270001DF80100FFF796FB002DF6D13EBD10B5ED
:1042800000F0CCF810BD000010B500210020002285
:10429000214B5B6803F00C0121B1042906D00829E9
:1042A00028D107E01D4B1E4C236027E01B4B1C4C04
:1042B000236023E0184B5B6803F47010164B5B68B7
:1042C00003F48032022303EB904022B9154B4343A1
:1042D000134C23600DE0104B5B6803F4003323B1F3
:1042E000104B43430E4C236003E00C4B43430C4CF8
:1042F000236003E0094B0A4C236000BF00BF064B5C
:104300005B68C3F30313084CE15C054B1B68CB40AF
:10431000034C236010BD00000010024000127A0020
:104320000000002000093D000400002010B51348E3
:10433000006840F0010011490860084640681049D3
:1043400008400E494860084600680E4908400B497D
:1043500008600846006820F480200860084640682D
:1043600020F4FE0048604FF41F008860FFF752FB06
:104370004FF000600449086010BD000000100240CA
:104380000000FFF8FFFFF6FE08ED00E001480068BE
:10439000704700003400002010B5FFF775FF0020C3
:1043A00011490860114800684FF47A71B0FBF1F4CC
:1043B000B4F1807F00D311E024F07F40401E4FF025
:1043C000E02148610F214FF0FF30FEF7BFFE0020D3
:1043D0004FF0E02188610720086100BF0321081F1A
:1043E000FEF7B4FE10BD00003400002000000020E5
:1043F00000B50246FFF7CAFF03461068181A884244
:1044000001D2002000BD1068084410601068181A1E
:10441000884200D313600120F4E7000002480068DE
:10442000401C0149086070473400002010B540F27C
:1044300025511D4800F06CF8012834D11A4800F0CD
:1044400023F9C4B20120194908701948007828BB23
:104450000D2C01D00A2C0ED116480088F0B1002096
:104460001549144A12888854012011490870002007
:104470001049088012E00F4800885F2808D20D48D4
:1044800001880088401C0B4A10800B48445405E00A
:1044900000200849088001200849087040F2255191
:1044A000014800F00DF810BD003801403D0000202B
:1044B0003C00002040000020640000203E0000205E
:1044C00010B50022002340F66A14A14200D100BFBB
:1044D0000A1201249440A3B2DC43048010BD21B130
:1044E000828942F40052828104E082894DF6FF7392
:1044F0001A408281704702460020B1F5007F00D14A
:1045000000BF13880B400BB1012000E00020704772
:1045100070B50246002400230025002040F66A16EC
:10452000B14200D100BFC1F3421501F01F030126C3
:1045300006FA03F3012D02D19689334006E0022DDD
:1045400002D1168A334001E0968A33400C120126CC
:1045500006FA04F41688344013B10CB1012000E0CF
:10456000002070BDF0B50346002400260025002081
:1045700040F66A17B94200D100BF1846C1F3421491
:1045800001F01F06012707FA06F5012C01D10C30B6
:1045900004E0022C01D1103000E014301AB1076899
:1045A0002F43076002E00768AF430760F0BD0000DB
:1045B0002DE9F04786B005460E460024A24600BF0E
:1045C000A1460027B08900B100BF2F462C8A4CF6C7
:1045D000FF700440F08804432C82AC894EF6F3103F
:1045E0000440B08831890843718908430443AC8191
:1045F000AC8A4FF6FF400440B0890443AC8201A866
:10460000FEF7A2FF1F48874202D1DDF810A001E0AB
:10461000DDF80CA0A88900F4004040B10AEBCA0004
:1046200000EB0A1031684900B0FBF1F807E00AEB33
:10463000CA0000EB0A1031688900B0FBF1F8642071
:10464000B8FBF0F004012009642101FB1089A8895E
:1046500000F4004040B1322000EBC900B0FBF1F0A3
:1046600000F00700044308E0322000EB0910642149
:10467000B0FBF1F000F00F0004432C8106B0BDE860
:10468000F08700000038014001468888C0F3080028
:104690007047C1F308028280704700BFFEE710B583
:1046A000FEF786FC10BD2DE9F0410646884614460B
:1046B00011E0F0B2C0F58077BC4201DA204600E09C
:1046C000384605462A464146304600F008F82E4452
:1046D000A844601B84B2002CEBD1BDE8F0812DE929
:1046E000F04104460E46174600F090F8FEF7BAFC7B
:1046F0000220FEF7C1FCC4F30740FEF7BDFCC4F383
:104700000720FEF7B9FCE0B2FEF7B6FC002504E096
:10471000705DFEF7B1FC681C85B2BD42F8DBFEF7A8
:10472000A6FC00F057F8BDE8F0812DE9F041044601
:104730000E461746FEF796FC0320FEF79DFCC4F3D9
:104740000740FEF799FCC4F30720FEF795FCE0B2A2
:10475000FEF792FC002504E0FF20FEF78DFC70556B
:104760006D1CBD42F8D3FEF782FCBDE8F08170B548
:1047700005460C46FEF776FC9F20FEF77DFCFF20E9
:10478000FEF77AFC2870FF20FEF776FC00022080FE
:10479000FF20FEF771FC218808432080FEF767FCAC
:1047A00070BD10B5044600F031F8FEF75BFC202028
:1047B000FEF762FCC4F30740FEF75EFCC4F307207B
:1047C000FEF75AFCE0B2FEF757FCFEF750FC00F093
:1047D00001F810BD70B50C4CFEF744FC0520FEF747
:1047E0004BFC00BFFF20FEF747FC0546641E05F0AA
:1047F000010008B1002CF5D1FEF739FC0CB1012005
:1048000070BD0020FCE70000404B4C0010B5FEF7E7
:1048100029FC0620FEF730FCFEF729FC10BD10B580
:10482000FDF772FF10BD000010B57D20FEF7F6FE0B
:10483000012800D100E0002009490870FEF77AFE47
:1048400045F25550FDF774FF0420FDF765FF40F673
:10485000C410FDF767FFFDF757FFFDF74DFF10BDD3
:104860003800002001480078704700003800002020
:10487000490050EAC12018BF04204A0D18BF40F07B
:10488000010040F2FF72B2EB515F08BF40F002003E
:10489000012808BF0520704730380A2801D20120BE
:1048A00070470020704700000EB5FF27FFF774FD2A
:1048B000FEF7F6FFFDF752FFFEF7F6FCFDF73CFAB8
:1048C000FEF7FCFEFEF798F900203C490870002630
:1048D0000AE0FEF78BF90746702F03D10120374914
:1048E000087003E0701CC6B2052EF2D300BFFEF7BD
:1048F00097F8002032490870324908703249086040
:10490000FDF75AFBFFF790FFFFF7DAF92B48007825
:1049100020B939462DA0FFF72FF803E0394638A01B
:10492000FFF72AF8FEF7CAF810B941A0FFF767F8B9
:10493000FFF72CFD044602940194009425463CE0C8
:10494000FFF724FD0446FEF76BFF48B125461D48DE
:10495000007828B100201B49087044A0FFF74FF8E9
:104960001848007808B130BF25E0322102A8FFF7CF
:104970003FFD08B1FFF758FA642101A8FFF738FDA1
:1049800010B12046FDF7D8FB4FF4FA716846FFF7E7
:104990002FFD08B1FDF710FB0948007858B9601BDE
:1049A0003A49884207D33AA0FFF729F80120054980
:1049B0000870FDF701FBFFF732FFC1E75000002050
:1049C0005100002052000020540000205B4572720C
:1049D0006F725D204D505536303530206E6F74202B
:1049E00064657465637465642C2057484F5F414D5E
:1049F0005F493D3078253032582E0D0A3E200000A8
:104A00005B53797374656D5D204D5055363035308C
:104A10002064657465637465642C2057484F5F415A
:104A20004D5F493D3078253032582E0D0A3E20002A
:104A30005B4572726F725D20573235513634206E8D
:104A40006F7420646574656374656420286578708C
:104A50006563746564204A454445432045463430C7
:104A60003137292E0D0A3E20000000005B53797378
:104A700074656D5D2057616B657570206279205596
:104A80004152542E0D0A3E2000000000E093040025
:104A90005B53797374656D5D20456E746572696EE4
:104AA0006720536C656570204D6F64652E2E2E0D4A
:104AB0000A00000010B500290AD00878002807D0A5
:104AC00005487844FBF73CFC002801D0002010BDCD
:104AD0000248784410BD00007E0700007607000001
:104AE00010B500290AD00878002807D00548784476
:104AF000FBF726FC002801D0002010BD02487844B6
:104B000010BD00006E07000066070000FCF78DB8BE
:104B1000FCF7C2B91F1C1F1E1F1E1F1F1E1F1E1FBA
:104B20000000000000000000000000000000000085
:104B3000000000F80000000000000033300000001A
:104B400000100C06100C0600000000000000000021
:104B500040C07840C0784000043F04043F04040093
:104B6000007088FC08300000001820FF211E0000A3
:104B7000F008F000E018000000211C031E211E00B8
:104B800000F00888700000001E212324192721103E
:104B900010160E00000000000000000000000000E1
:104BA000000000E018040200000000071820400088
:104BB00000020418E0000000004020180700000078
:104BC000404080F0804040000202010F01020200DC
:104BD000000000F0000000000101011F01010100C0
:104BE000000000000000000080B070000000000025
:104BF00000000000000000000001010101010101AE
:104C00000000000000000000003030000000000044
:104C10000000000080601804006018060100000019
:104C200000E010080810E000000F102020100F0016
:104C3000001010F8000000000020203F202000009D
:104C400000700808088870000030282422213000F5
:104C500000300888884830000018202020110E00FD
:104C60000000C02010F8000000070424243F2400A6
:104C700000F80888880808000019212020110E007B
:104C800000E0108888180000000F112020110E008D
:104C900000380808C83808000000003F0000000085
:104CA0000070880808887000001C222121221C0046
:104CB00000E010080810E0000000312222110F006F
:104CC000000000C0C0000000000000303000000004
:104CD0000000008000000000000080600000000074
:104CE000000080402010080000010204081020008D
:104CF00040404040404040000404040404040400D8
:104D0000000810204080000000201008040201006C
:104D1000007048080808F00000000030360100006C
:104D2000C030C828E810E0000718272423140B001F
:104D30000000C038E0000000203C23020227382099
:104D400008F8888888700000203F202020110E007D
:104D5000C030080808083800071820202010080074
:104D600008F808080810E000203F202020100F005D
:104D700008F88888E8081000203F20202320180029
:104D800008F88888E8081000203F20000300000091
:104D9000C03008080838000007182020221E020032
:104DA00008F808000008F808203F210101213F20F1
:104DB000000808F8080800000020203F202000001C
:104DC00000000808F8080800C08080807F0000000C
:104DD00008F888C028180800203F20012638200045
:104DE00008F8080000000000203F202020203000AC
:104DF00008F8F800F8F80800203F003F003F2000C6
:104E000008F830C00008F808203F200007183F00CD
:104E1000E01008080810E0000F10202020100F00FC
:104E200008F808080808F000203F210101010000EF
:104E3000E01008080810E0000F18242438504F0034
:104E400008F8888888887000203F2000030C3020F4
:104E500000708808080838000038202121221C0032
:104E6000180808F8080818000000203F200000007B
:104E700008F808000008F808001F202020201F0064
:104E80000878880000C83808000007380E010000C4
:104E9000F80800F80008F800033C0700073C03008E
:104EA000081868808068180820302C03032C3020F4
:104EB0000838C800C83808000000203F2000000063
:104EC00010080808C83808002038262120201800BB
:104ED000000000FE020202000000007F404040008F
:104EE000000C30C000000000000000010638C000C7
:104EF00000020202FE000000004040407F0000006F
:104F00000000040202020400000000000000000093
:104F10000000000000000000808080808080808091
:104F20000002020400000000000000000000000079
:104F300000008080808000000019242222223F206F
:104F400008F8008080000000003F112020110E00B2
:104F50000000008080800000000E11202020110041
:104F6000000000808088F800000E112020103F20F3
:104F70000000808080800000001F22222222130077
:104F8000008080F0888888180020203F20200000C2
:104F90000000808080808000006B94949493600077
:104FA00008F8008080800000203F210000203F2082
:104FB00000809898000000000020203F2020000082
:104FC000000000809898000000C08080807F000072
:104FD00008F8000080808000203F24022D3020004F
:104FE000000808F8000000000020203F20200000FA
:104FF0008080808080808000203F20003F20003F14
:105000008080008080800000203F210000203F2021
:105010000000808080800000001F202020201F00D2
:10502000808000808000000080FFA12020110E0001
:105030000000008080808000000E112020A0FF80F2
:10504000808080008080800020203F21200001009F
:1050500000008080808080000033242424241900F4
:10506000008080E0808000000000001F2020000001
:105070008080000000808000001F202020103F2042
:10508000808080000080808000010E3008060100D2
:1050900080800080008080800F300C030C300F0077
:1050A00000808000808080000020312E0E312000A2
:1050B000808080000080808080818E7018060100D2
:1050C00000808080808080000021302C22213000F0
:1050D00000000000807C020200000000003F404011
:1050E00000000000FF00000000000000FF000000C2
:1050F0000002027C800000000040403F00000000F1
:10510000000601010202040400000000000000008B
:1051100030313233343536373839414243444546ED
:1051200000000000000000000000000030313233B9
:1051300034353637383941424344454640305800CB
:1051400030313233343536373839616263646566FD
:105150004030780004000008000000000000000259
:1051600000010000103031323334353637383961C0
:1051700062636465667870003031323334353637B7
:10518000383941424344454658500000024000002F
:10519000000000A00000000005400000000000C862
:1051A000000000000C4000000000409C00000000D7
:1051B000194000000020BCBE000000003440000088
:1051C000BFC91B8E00000004B5400000504BCFD07B
:1051D0006607E2CF010000006C4100003E8251AA48
:1051E000DFEEA73401000000D9420000DCB5A0E2E8
:1051F0003A301F97FFFFFFFFB4450000FD25A0C810
:10520000E9A3C14FFFFFFFFFFF3F00000000008048
:1052100000000000FF3F00000000008000000000D0
:105220006C53000800000020640000002801000802
:10523000D053000864000020C406000044010008A8
:105240001C00000043000000F8FFFFFF0C000000FE
:105250000E0000000F0000002E00000010010000F2
:1052600043000000F8FFFFFF004040404040404046
:105270004040414141414140404040404040404029
:1052800040404040404040404005020202020202CD
:10529000020202020202020202202020202020201C
:1052A0002020200202020202020290909090909030
:1052B00010101010101010101010101010101010EE
:1052C0001010101002020202020288888888888862
:1052D000080808080808080808080808080808084E
:1052E0000808080802020202400000000000000056
:1052F00000000000000000000000000000000000AE
:10530000000000000000000000000000000000009D
:10531000000000000000000000000000000000008D
:10532000000000000000000000000000000000007D
:10533000000000000000000000000000000000006D
:10534000000000000000000000000000000000005D
:10535000000000000000000000000000000000004D
:1053600000000000000000000000000000A24A044D
:105370000000000000000000010203040607080905
:1053800000000000010203040102030406070809EB
:1053900002040608EA0706000B000E003B000000AE
:1053A00000000000000000000000000000000000FD
:1053B00000000000000000000000000000000000ED
:1053C00000000000000000000000000000000000DD
:04000005080000ED02
:00000001FF
